:060000000A128A11FC2F18
:100D84008130831203139F008030831603139F0066
:100D94000800FF3083160313850088010A128A11A4
:100DA400C2260800F401F501701CDE2E7208F40757
:100DB4000318F50A7308F50701300310F20DF30D5B
:100DC400FF3E031DDF2E01300310F10CF00CFF3E3B
:100DD400031DE62E70087104031DD62E7508F1005C
:100DE4007408F0000800F600831203131F08C739C3
:100DF4009F007608F20002300310F20DFF3E031D3F
:100E0400FE2E0310720D1F049F008230F300DD30AC
:100E1400F200F20B0B2FF30B0B2F102F8312031383
:100E24001F151F19132F1E08F500831603131E0820
:100E3400F4007508F1007408F0000800FC01FD01DD
:100E44008030FA000030FB000A128A11CB260A1205
:100E54008A113E2F01303B2F03303B2F07303B2FAD
:100E64000F303B2F1F303B2F3F303B2F7F303B2F2A
:100E7400FF3083120313880002300A128A11F52608
:100E84000A128A117108FD007008FC007D087B02BB
:100E9400031D4E2F7C087A0203182C2F7B08F800C0
:100EA4007A08F7000310F70DF80D7D087802031D8A
:100EB4005D2F7C08770203182E2F7B08F1007A0837
:100EC400F0000330F2000030F3000A128A11D42635
:100ED4000A128A117D087102031D722F7C087002A8
:100EE4000318302F7B08F8007A08F7000310F70D79
:100EF400F80D0310F70DF80D7D087802031D842FFB
:100F04007C0877020318322F7B08F1007A08F0007E
:100F14000530F2000030F3000A128A11D4260A12B6
:100F24008A117D087102031D992F7C087002031831
:100F3400342F7B08F1007A08F0000630F20000300C
:100F4400F3000A128A11D4260A128A117D0871024A
:100F5400031DAE2F7C0870020318362F7B08F100A6
:100F64007A08F0000730F2000030F3000A128A1108
:100F7400D4260A128A117D087102031DC32F7C082E
:100F840070020318382F7B08F8007A08F700031062
:100F9400F70DF80D0310F70DF80D0310F70DF80D0C
:100FA4007D087802031DD82F7C08770203183A2F96
:100FB400FF308312031388007F30F900D430F80027
:100FC4003130F700F70BE42FF80BE42FF90BE42F83
:100FD400EB2F8312031388017F30F900D430F8001B
:100FE4003130F700F70BF42FF80BF42FF90BF42F33
:0C0FF400FB2F3E2F83010A128A11202FD0
:00000001FF
